{
  "_format": "hh-sol-artifact-1",
  "contractName": "CCNFT",
  "sourceName": "contracts/nft_collection.sol",
  "abi": [
    {
      "inputs": [],
      "stateMutability": "nonpayable",
      "type": "constructor"
    },
    {
      "anonymous": false,
      "inputs": [
        {
          "indexed": true,
          "internalType": "address",
          "name": "owner",
          "type": "address"
        },
        {
          "indexed": true,
          "internalType": "address",
          "name": "approved",
          "type": "address"
        },
        {
          "indexed": true,
          "internalType": "uint256",
          "name": "tokenId",
          "type": "uint256"
        }
      ],
      "name": "Approval",
      "type": "event"
    },
    {
      "anonymous": false,
      "inputs": [
        {
          "indexed": true,
          "internalType": "address",
          "name": "owner",
          "type": "address"
        },
        {
          "indexed": true,
          "internalType": "address",
          "name": "operator",
          "type": "address"
        },
        {
          "indexed": false,
          "internalType": "bool",
          "name": "approved",
          "type": "bool"
        }
      ],
      "name": "ApprovalForAll",
      "type": "event"
    },
    {
      "anonymous": false,
      "inputs": [
        {
          "indexed": true,
          "internalType": "address",
          "name": "buyer",
          "type": "address"
        },
        {
          "indexed": true,
          "internalType": "uint256",
          "name": "tokenId",
          "type": "uint256"
        }
      ],
      "name": "Buy",
      "type": "event"
    },
    {
      "anonymous": false,
      "inputs": [
        {
          "indexed": true,
          "internalType": "address",
          "name": "claimer",
          "type": "address"
        },
        {
          "indexed": true,
          "internalType": "uint256",
          "name": "tokenId",
          "type": "uint256"
        }
      ],
      "name": "Claim",
      "type": "event"
    },
    {
      "anonymous": false,
      "inputs": [
        {
          "indexed": true,
          "internalType": "address",
          "name": "buyer",
          "type": "address"
        },
        {
          "indexed": true,
          "internalType": "uint256",
          "name": "tokenId",
          "type": "uint256"
        }
      ],
      "name": "Mint",
      "type": "event"
    },
    {
      "anonymous": false,
      "inputs": [
        {
          "indexed": true,
          "internalType": "address",
          "name": "previousOwner",
          "type": "address"
        },
        {
          "indexed": true,
          "internalType": "address",
          "name": "newOwner",
          "type": "address"
        }
      ],
      "name": "OwnershipTransferred",
      "type": "event"
    },
    {
      "anonymous": false,
      "inputs": [
        {
          "indexed": true,
          "internalType": "address",
          "name": "from",
          "type": "address"
        },
        {
          "indexed": true,
          "internalType": "address",
          "name": "to",
          "type": "address"
        },
        {
          "indexed": true,
          "internalType": "uint256",
          "name": "tokenId",
          "type": "uint256"
        }
      ],
      "name": "Transfer",
      "type": "event"
    },
    {
      "inputs": [],
      "name": "MAX_SUPPLY",
      "outputs": [
        {
          "internalType": "uint256",
          "name": "",
          "type": "uint256"
        }
      ],
      "stateMutability": "view",
      "type": "function"
    },
    {
      "inputs": [],
      "name": "NFT_VALUE",
      "outputs": [
        {
          "internalType": "uint256",
          "name": "",
          "type": "uint256"
        }
      ],
      "stateMutability": "view",
      "type": "function"
    },
    {
      "inputs": [
        {
          "internalType": "address",
          "name": "to",
          "type": "address"
        },
        {
          "internalType": "uint256",
          "name": "tokenId",
          "type": "uint256"
        }
      ],
      "name": "approve",
      "outputs": [],
      "stateMutability": "nonpayable",
      "type": "function"
    },
    {
      "inputs": [
        {
          "internalType": "address",
          "name": "owner",
          "type": "address"
        }
      ],
      "name": "balanceOf",
      "outputs": [
        {
          "internalType": "uint256",
          "name": "",
          "type": "uint256"
        }
      ],
      "stateMutability": "view",
      "type": "function"
    },
    {
      "inputs": [
        {
          "internalType": "uint8",
          "name": "amount",
          "type": "uint8"
        }
      ],
      "name": "buy",
      "outputs": [],
      "stateMutability": "nonpayable",
      "type": "function"
    },
    {
      "inputs": [],
      "name": "buyFee",
      "outputs": [
        {
          "internalType": "uint16",
          "name": "",
          "type": "uint16"
        }
      ],
      "stateMutability": "view",
      "type": "function"
    },
    {
      "inputs": [],
      "name": "canBuy",
      "outputs": [
        {
          "internalType": "bool",
          "name": "",
          "type": "bool"
        }
      ],
      "stateMutability": "view",
      "type": "function"
    },
    {
      "inputs": [],
      "name": "canClaim",
      "outputs": [
        {
          "internalType": "bool",
          "name": "",
          "type": "bool"
        }
      ],
      "stateMutability": "view",
      "type": "function"
    },
    {
      "inputs": [
        {
          "internalType": "uint256[]",
          "name": "listTokenId",
          "type": "uint256[]"
        }
      ],
      "name": "claim",
      "outputs": [],
      "stateMutability": "nonpayable",
      "type": "function"
    },
    {
      "inputs": [],
      "name": "deposit",
      "outputs": [],
      "stateMutability": "payable",
      "type": "function"
    },
    {
      "inputs": [],
      "name": "feesCollector",
      "outputs": [
        {
          "internalType": "address",
          "name": "",
          "type": "address"
        }
      ],
      "stateMutability": "view",
      "type": "function"
    },
    {
      "inputs": [],
      "name": "fundsCollector",
      "outputs": [
        {
          "internalType": "address",
          "name": "",
          "type": "address"
        }
      ],
      "stateMutability": "view",
      "type": "function"
    },
    {
      "inputs": [],
      "name": "fundsToken",
      "outputs": [
        {
          "internalType": "contract IERC20",
          "name": "",
          "type": "address"
        }
      ],
      "stateMutability": "view",
      "type": "function"
    },
    {
      "inputs": [
        {
          "internalType": "uint256",
          "name": "tokenId",
          "type": "uint256"
        }
      ],
      "name": "getApproved",
      "outputs": [
        {
          "internalType": "address",
          "name": "",
          "type": "address"
        }
      ],
      "stateMutability": "view",
      "type": "function"
    },
    {
      "inputs": [
        {
          "internalType": "address",
          "name": "owner",
          "type": "address"
        },
        {
          "internalType": "address",
          "name": "operator",
          "type": "address"
        }
      ],
      "name": "isApprovedForAll",
      "outputs": [
        {
          "internalType": "bool",
          "name": "",
          "type": "bool"
        }
      ],
      "stateMutability": "view",
      "type": "function"
    },
    {
      "inputs": [],
      "name": "maxMintPerUser",
      "outputs": [
        {
          "internalType": "uint8",
          "name": "",
          "type": "uint8"
        }
      ],
      "stateMutability": "view",
      "type": "function"
    },
    {
      "inputs": [
        {
          "internalType": "address",
          "name": "to",
          "type": "address"
        },
        {
          "internalType": "uint8",
          "name": "amount",
          "type": "uint8"
        }
      ],
      "name": "mint",
      "outputs": [],
      "stateMutability": "nonpayable",
      "type": "function"
    },
    {
      "inputs": [],
      "name": "name",
      "outputs": [
        {
          "internalType": "string",
          "name": "",
          "type": "string"
        }
      ],
      "stateMutability": "view",
      "type": "function"
    },
    {
      "inputs": [],
      "name": "owner",
      "outputs": [
        {
          "internalType": "address",
          "name": "",
          "type": "address"
        }
      ],
      "stateMutability": "view",
      "type": "function"
    },
    {
      "inputs": [
        {
          "internalType": "uint256",
          "name": "tokenId",
          "type": "uint256"
        }
      ],
      "name": "ownerOf",
      "outputs": [
        {
          "internalType": "address",
          "name": "",
          "type": "address"
        }
      ],
      "stateMutability": "view",
      "type": "function"
    },
    {
      "inputs": [],
      "name": "profitToPay",
      "outputs": [
        {
          "internalType": "uint16",
          "name": "",
          "type": "uint16"
        }
      ],
      "stateMutability": "view",
      "type": "function"
    },
    {
      "inputs": [
        {
          "internalType": "address",
          "name": "token",
          "type": "address"
        }
      ],
      "name": "recover",
      "outputs": [],
      "stateMutability": "nonpayable",
      "type": "function"
    },
    {
      "inputs": [],
      "name": "renounceOwnership",
      "outputs": [],
      "stateMutability": "nonpayable",
      "type": "function"
    },
    {
      "inputs": [
        {
          "internalType": "address",
          "name": "",
          "type": "address"
        },
        {
          "internalType": "address",
          "name": "",
          "type": "address"
        },
        {
          "internalType": "uint256",
          "name": "",
          "type": "uint256"
        }
      ],
      "name": "safeTransferFrom",
      "outputs": [],
      "stateMutability": "pure",
      "type": "function"
    },
    {
      "inputs": [
        {
          "internalType": "address",
          "name": "",
          "type": "address"
        },
        {
          "internalType": "address",
          "name": "",
          "type": "address"
        },
        {
          "internalType": "uint256",
          "name": "",
          "type": "uint256"
        },
        {
          "internalType": "bytes",
          "name": "",
          "type": "bytes"
        }
      ],
      "name": "safeTransferFrom",
      "outputs": [],
      "stateMutability": "pure",
      "type": "function"
    },
    {
      "inputs": [
        {
          "internalType": "address",
          "name": "operator",
          "type": "address"
        },
        {
          "internalType": "bool",
          "name": "approved",
          "type": "bool"
        }
      ],
      "name": "setApprovalForAll",
      "outputs": [],
      "stateMutability": "nonpayable",
      "type": "function"
    },
    {
      "inputs": [
        {
          "internalType": "string",
          "name": "_baseURI",
          "type": "string"
        }
      ],
      "name": "setBaseURI",
      "outputs": [],
      "stateMutability": "nonpayable",
      "type": "function"
    },
    {
      "inputs": [
        {
          "internalType": "uint16",
          "name": "_buyFee",
          "type": "uint16"
        }
      ],
      "name": "setBuyFee",
      "outputs": [],
      "stateMutability": "nonpayable",
      "type": "function"
    },
    {
      "inputs": [
        {
          "internalType": "bool",
          "name": "_canBuy",
          "type": "bool"
        }
      ],
      "name": "setCanBuy",
      "outputs": [],
      "stateMutability": "nonpayable",
      "type": "function"
    },
    {
      "inputs": [
        {
          "internalType": "bool",
          "name": "_canClaim",
          "type": "bool"
        }
      ],
      "name": "setCanClaim",
      "outputs": [],
      "stateMutability": "nonpayable",
      "type": "function"
    },
    {
      "inputs": [
        {
          "internalType": "address",
          "name": "_address",
          "type": "address"
        }
      ],
      "name": "setFeesCollector",
      "outputs": [],
      "stateMutability": "nonpayable",
      "type": "function"
    },
    {
      "inputs": [
        {
          "internalType": "address",
          "name": "_address",
          "type": "address"
        }
      ],
      "name": "setFundsCollector",
      "outputs": [],
      "stateMutability": "nonpayable",
      "type": "function"
    },
    {
      "inputs": [
        {
          "internalType": "address",
          "name": "token",
          "type": "address"
        }
      ],
      "name": "setFundsToken",
      "outputs": [],
      "stateMutability": "nonpayable",
      "type": "function"
    },
    {
      "inputs": [
        {
          "internalType": "uint8",
          "name": "_maxMintPerUser",
          "type": "uint8"
        }
      ],
      "name": "setMaxMintPerUser",
      "outputs": [],
      "stateMutability": "nonpayable",
      "type": "function"
    },
    {
      "inputs": [
        {
          "internalType": "uint16",
          "name": "_profitToPay",
          "type": "uint16"
        }
      ],
      "name": "setProfitToPay",
      "outputs": [],
      "stateMutability": "nonpayable",
      "type": "function"
    },
    {
      "inputs": [
        {
          "internalType": "bytes4",
          "name": "interfaceId",
          "type": "bytes4"
        }
      ],
      "name": "supportsInterface",
      "outputs": [
        {
          "internalType": "bool",
          "name": "",
          "type": "bool"
        }
      ],
      "stateMutability": "view",
      "type": "function"
    },
    {
      "inputs": [],
      "name": "symbol",
      "outputs": [
        {
          "internalType": "string",
          "name": "",
          "type": "string"
        }
      ],
      "stateMutability": "view",
      "type": "function"
    },
    {
      "inputs": [],
      "name": "tokenBurned",
      "outputs": [
        {
          "internalType": "uint16",
          "name": "",
          "type": "uint16"
        }
      ],
      "stateMutability": "view",
      "type": "function"
    },
    {
      "inputs": [
        {
          "internalType": "uint256",
          "name": "index",
          "type": "uint256"
        }
      ],
      "name": "tokenByIndex",
      "outputs": [
        {
          "internalType": "uint256",
          "name": "",
          "type": "uint256"
        }
      ],
      "stateMutability": "view",
      "type": "function"
    },
    {
      "inputs": [],
      "name": "tokenCount",
      "outputs": [
        {
          "internalType": "uint16",
          "name": "",
          "type": "uint16"
        }
      ],
      "stateMutability": "view",
      "type": "function"
    },
    {
      "inputs": [
        {
          "internalType": "address",
          "name": "owner",
          "type": "address"
        },
        {
          "internalType": "uint256",
          "name": "index",
          "type": "uint256"
        }
      ],
      "name": "tokenOfOwnerByIndex",
      "outputs": [
        {
          "internalType": "uint256",
          "name": "",
          "type": "uint256"
        }
      ],
      "stateMutability": "view",
      "type": "function"
    },
    {
      "inputs": [
        {
          "internalType": "uint256",
          "name": "tokenId",
          "type": "uint256"
        }
      ],
      "name": "tokenURI",
      "outputs": [
        {
          "internalType": "string",
          "name": "",
          "type": "string"
        }
      ],
      "stateMutability": "view",
      "type": "function"
    },
    {
      "inputs": [],
      "name": "totalSupply",
      "outputs": [
        {
          "internalType": "uint256",
          "name": "",
          "type": "uint256"
        }
      ],
      "stateMutability": "view",
      "type": "function"
    },
    {
      "inputs": [
        {
          "internalType": "address",
          "name": "",
          "type": "address"
        },
        {
          "internalType": "address",
          "name": "",
          "type": "address"
        },
        {
          "internalType": "uint256",
          "name": "",
          "type": "uint256"
        }
      ],
      "name": "transferFrom",
      "outputs": [],
      "stateMutability": "pure",
      "type": "function"
    },
    {
      "inputs": [
        {
          "internalType": "address",
          "name": "newOwner",
          "type": "address"
        }
      ],
      "name": "transferOwnership",
      "outputs": [],
      "stateMutability": "nonpayable",
      "type": "function"
    },
    {
      "inputs": [
        {
          "internalType": "uint256",
          "name": "tokenId",
          "type": "uint256"
        }
      ],
      "name": "uri",
      "outputs": [
        {
          "internalType": "string",
          "name": "",
          "type": "string"
        }
      ],
      "stateMutability": "view",
      "type": "function"
    },
    {
      "inputs": [],
      "name": "withdraw",
      "outputs": [],
      "stateMutability": "payable",
      "type": "function"
    }
  ],
  "bytecode": "0x6080604052600e805464ffffffffff60b01b1916600160b01b1790553480156200002857600080fd5b506040518060400160405280600f81526020016e10dc9e5c1d1bd0d85b5c1bc8139195608a1b8152506040518060400160405280600581526020016410d0d3919560da1b8152508160009081620000809190620001b2565b5060016200008f8282620001b2565b505050620000ac620000a6620000b760201b60201c565b620000bb565b6001600b556200027e565b3390565b600a80546001600160a01b038381166001600160a01b0319831681179093556040519116919082907f8be0079c531659141344cd1fd0a4f28419497f9722a3daafe3b4186f6b6457e090600090a35050565b634e487b7160e01b600052604160045260246000fd5b600181811c908216806200013857607f821691505b6020821081036200015957634e487b7160e01b600052602260045260246000fd5b50919050565b601f821115620001ad57600081815260208120601f850160051c81016020861015620001885750805b601f850160051c820191505b81811015620001a95782815560010162000194565b5050505b505050565b81516001600160401b03811115620001ce57620001ce6200010d565b620001e681620001df845462000123565b846200015f565b602080601f8311600181146200021e5760008415620002055750858301515b600019600386901b1c1916600185901b178555620001a9565b600085815260208120601f198616915b828110156200024f578886015182559484019460019091019084016200022e565b50858210156200026e5787850151600019600388901b60f8161c191681555b5050505050600190811b01905550565b61315e806200028e6000396000f3fe6080604052600436106103085760003560e01c80636b15891b1161019a578063a1ad7cef116100e1578063d304c4bc1161008a578063f2fde38b11610064578063f2fde38b14610891578063fcad5ce3146108b1578063ff65226c146108d357600080fd5b8063d304c4bc146107f5578063e24b713914610828578063e985e9c51461084857600080fd5b8063c503101e116100bb578063c503101e146107b5578063c87b56dd146107d5578063d0e30db0146103bc57600080fd5b8063a1ad7cef14610758578063a22cb4651461077a578063b88d4fde1461079a57600080fd5b80637198ba7411610143578063977550e21161011d578063977550e2146106f95780639cf160f6146107165780639f181b5e1461073657600080fd5b80637198ba74146106a65780638da5cb5b146106c657806395d89b41146106e457600080fd5b806370a082311161017457806370a082311461065157806370c4767114610671578063715018a61461069157600080fd5b80636b15891b146105f05780636ba4c138146106105780636dc7a6271461063057600080fd5b80632f745c591161025e57806347062402116102075780636352211e116101e15780636352211e1461059057806363f04b15146105b0578063691562a0146105d057600080fd5b8063470624021461051b5780634f6ccce71461055057806355f804b31461057057600080fd5b80633a8c3338116102385780633a8c3338146104f35780633ccfd60b1461051357806342842e0e1461045d57600080fd5b80632f745c591461049d57806332cb6b0c146104bd578063373071f2146104d357600080fd5b80630cd865ec116102c057806318160ddd1161029a57806318160ddd1461043e57806323b872dd1461045d5780632c06862b1461047d57600080fd5b80630cd865ec146103de5780630e89341c146103fe57806314107f3c1461041e57600080fd5b8063081812fc116102f1578063081812fc14610364578063095ea7b31461039c5780630b39af5d146103be57600080fd5b806301ffc9a71461030d57806306fdde0314610342575b600080fd5b34801561031957600080fd5b5061032d610328366004612949565b6108f4565b60405190151581526020015b60405180910390f35b34801561034e57600080fd5b50610357610905565b60405161033991906129c2565b34801561037057600080fd5b5061038461037f3660046129d5565b610997565b6040516001600160a01b039091168152602001610339565b3480156103a857600080fd5b506103bc6103b7366004612a0a565b6109be565b005b3480156103ca57600080fd5b506103bc6103d9366004612a45565b610af4565b3480156103ea57600080fd5b506103bc6103f9366004612a60565b610b37565b34801561040a57600080fd5b506103576104193660046129d5565b610c9f565b34801561042a57600080fd5b506103bc610439366004612a45565b610d38565b34801561044a57600080fd5b506008545b604051908152602001610339565b34801561046957600080fd5b506103bc610478366004612a7b565b6112c7565b34801561048957600080fd5b506103bc610498366004612ac5565b61130f565b3480156104a957600080fd5b5061044f6104b8366004612a0a565b611350565b3480156104c957600080fd5b5061044f61058c81565b3480156104df57600080fd5b506103bc6104ee366004612a60565b6113f8565b3480156104ff57600080fd5b50600d54610384906001600160a01b031681565b6103bc611478565b34801561052757600080fd5b50600e5461053d90600160d81b900461ffff1681565b60405161ffff9091168152602001610339565b34801561055c57600080fd5b5061044f61056b3660046129d5565b6114ac565b34801561057c57600080fd5b506103bc61058b366004612b6e565b611550565b34801561059c57600080fd5b506103846105ab3660046129d5565b611568565b3480156105bc57600080fd5b50600f54610384906001600160a01b031681565b3480156105dc57600080fd5b506103bc6105eb366004612bb7565b6115cd565b3480156105fc57600080fd5b506103bc61060b366004612bea565b611745565b34801561061c57600080fd5b506103bc61062b366004612c0e565b611789565b34801561063c57600080fd5b50600e5461032d90600160a81b900460ff1681565b34801561065d57600080fd5b5061044f61066c366004612a60565b611b41565b34801561067d57600080fd5b506103bc61068c366004612bea565b611bdb565b34801561069d57600080fd5b506103bc611c1f565b3480156106b257600080fd5b506103bc6106c1366004612a60565b611c33565b3480156106d257600080fd5b50600a546001600160a01b0316610384565b3480156106f057600080fd5b50610357611cb3565b34801561070557600080fd5b5061044f680d8d726b7177a8000081565b34801561072257600080fd5b50600e54610384906001600160a01b031681565b34801561074257600080fd5b50600e5461053d90600160b81b900461ffff1681565b34801561076457600080fd5b50600e5461053d90600160c81b900461ffff1681565b34801561078657600080fd5b506103bc610795366004612c83565b611cc2565b3480156107a657600080fd5b506103bc610478366004612cba565b3480156107c157600080fd5b506103bc6107d0366004612ac5565b611ccd565b3480156107e157600080fd5b506103576107f03660046129d5565b611d0e565b34801561080157600080fd5b50600e5461081690600160b01b900460ff1681565b60405160ff9091168152602001610339565b34801561083457600080fd5b506103bc610843366004612a60565b611d82565b34801561085457600080fd5b5061032d610863366004612d36565b6001600160a01b03918216600090815260056020908152604080832093909416825291909152205460ff1690565b34801561089d57600080fd5b506103bc6108ac366004612a60565b611e02565b3480156108bd57600080fd5b50600e5461053d90600160e81b900461ffff1681565b3480156108df57600080fd5b50600e5461032d90600160a01b900460ff1681565b60006108ff82611e8f565b92915050565b60606000805461091490612d60565b80601f016020809104026020016040519081016040528092919081815260200182805461094090612d60565b801561098d5780601f106109625761010080835404028352916020019161098d565b820191906000526020600020905b81548152906001019060200180831161097057829003601f168201915b5050505050905090565b60006109a282611ecd565b506000908152600460205260409020546001600160a01b031690565b60006109c982611568565b9050806001600160a01b0316836001600160a01b031603610a575760405162461bcd60e51b815260206004820152602160248201527f4552433732313a20617070726f76616c20746f2063757272656e74206f776e6560448201527f720000000000000000000000000000000000000000000000000000000000000060648201526084015b60405180910390fd5b336001600160a01b0382161480610a735750610a738133610863565b610ae55760405162461bcd60e51b815260206004820152603e60248201527f4552433732313a20617070726f76652063616c6c6572206973206e6f7420746f60448201527f6b656e206f776e6572206e6f7220617070726f76656420666f7220616c6c00006064820152608401610a4e565b610aef8383611f31565b505050565b610afc611f9f565b600e805460ff909216600160b01b027fffffffffffffffffff00ffffffffffffffffffffffffffffffffffffffffffff909216919091179055565b610b3f611f9f565b806001600160a01b031663a9059cbb610b60600a546001600160a01b031690565b6040517f70a082310000000000000000000000000000000000000000000000000000000081523060048201526001600160a01b038516906370a0823190602401602060405180830381865afa158015610bbd573d6000803e3d6000fd5b505050506040513d601f19601f82011682018060405250810190610be19190612d9a565b6040516001600160e01b031960e085901b1681526001600160a01b03909216600483015260248201526044016020604051808303816000875af1158015610c2c573d6000803e3d6000fd5b505050506040513d601f19601f82011682018060405250810190610c509190612db3565b610c9c5760405162461bcd60e51b815260206004820152601260248201527f43616e6e6f742073656e642066756e64732e00000000000000000000000000006044820152606401610a4e565b50565b6000818152600260205260409020546060906001600160a01b0316610d065760405162461bcd60e51b815260206004820152601360248201527f746f6b656e20646f65736e2774206578697374000000000000000000000000006044820152606401610a4e565b600c610d1183611ff9565b604051602001610d22929190612dd0565b6040516020818303038152906040529050919050565b6002600b5403610d8a5760405162461bcd60e51b815260206004820152601f60248201527f5265656e7472616e637947756172643a207265656e7472616e742063616c6c006044820152606401610a4e565b6002600b55600e54600160a01b900460ff16610de85760405162461bcd60e51b815260206004820152601260248201527f427579206973206e6f7420616c6c6f77656400000000000000000000000000006044820152606401610a4e565b600d546001600160a01b0316610e405760405162461bcd60e51b815260206004820152601660248201527f46756e6473436f6c6c6563746f72206e6f7420536574000000000000000000006044820152606401610a4e565b600e546001600160a01b0316610e985760405162461bcd60e51b815260206004820152601560248201527f46656573436f6c6c6563746f72206e6f742053657400000000000000000000006044820152606401610a4e565b600e5461058c90610eb89060ff841690600160b81b900461ffff16612e6d565b61ffff1610610ef75760405162461bcd60e51b815260206004820152600b60248201526a139bc81b5bdc994813919560aa1b6044820152606401610a4e565b600e5460ff600160b01b90910481169082161115610f7d5760405162461bcd60e51b815260206004820152602260248201527f43616e6e6f74206d696e74206d6f7265207468616e206d6178696d756d206d6960448201527f6e740000000000000000000000000000000000000000000000000000000000006064820152608401610a4e565b600e54600160b01b900460ff908116908216610f9833611b41565b610fa29190612e8a565b1115610ff05760405162461bcd60e51b815260206004820152601e60248201527f4d6178696d756d206d696e7420706572207573657220657863656564656400006044820152606401610a4e565b60015b8160ff168160ff16116110a957600e8054600160b81b900461ffff1690601761101b83612ea2565b91906101000a81548161ffff021916908361ffff160217905550506110536110403390565b600e54600160b81b900461ffff16612136565b600e54600160b81b900461ffff16336001600160a01b03167fe3d4187f6ca4248660cc0ac8b8056515bac4a8132be2eca31d6d0cc170722a7e60405160405180910390a3806110a181612ec3565b915050610ff3565b50600f546001600160a01b03166323b872dd33600d546001600160a01b03166110de680d8d726b7177a8000060ff8716612ee2565b6040516001600160e01b031960e086901b1681526001600160a01b03938416600482015292909116602483015260448201526064016020604051808303816000875af1158015611132573d6000803e3d6000fd5b505050506040513d601f19601f820116820180604052508101906111569190612db3565b6111a25760405162461bcd60e51b815260206004820152601860248201527f43616e6e6f742073656e642066756e647320746f6b656e7300000000000000006044820152606401610a4e565b600f546001600160a01b03166323b872dd33600e546001600160a01b0381169061271090600160d81b900461ffff166111e7680d8d726b7177a8000060ff8916612ee2565b6111f19190612ee2565b6111fb9190612f17565b6040516001600160e01b031960e086901b1681526001600160a01b03938416600482015292909116602483015260448201526064016020604051808303816000875af115801561124f573d6000803e3d6000fd5b505050506040513d601f19601f820116820180604052508101906112739190612db3565b6112bf5760405162461bcd60e51b815260206004820152601760248201527f43616e6e6f742073656e64206665657320746f6b656e730000000000000000006044820152606401610a4e565b506001600b55565b60405162461bcd60e51b815260206004820152600b60248201527f4e6f7420416c6c6f7765640000000000000000000000000000000000000000006044820152606401610a4e565b611317611f9f565b600e8054911515600160a01b027fffffffffffffffffffffff00ffffffffffffffffffffffffffffffffffffffff909216919091179055565b600061135b83611b41565b82106113cf5760405162461bcd60e51b815260206004820152602b60248201527f455243373231456e756d657261626c653a206f776e657220696e646578206f7560448201527f74206f6620626f756e64730000000000000000000000000000000000000000006064820152608401610a4e565b506001600160a01b03919091166000908152600660209081526040808320938352929052205490565b611400611f9f565b6001600160a01b0381166114565760405162461bcd60e51b815260206004820152601460248201527f43616e6e6f7420736574206164647265737320300000000000000000000000006044820152606401610a4e565b600e80546001600160a01b0319166001600160a01b0392909216919091179055565b611480611f9f565b60405133904780156108fc02916000818181858888f19350505050158015610c9c573d6000803e3d6000fd5b60006114b760085490565b821061152b5760405162461bcd60e51b815260206004820152602c60248201527f455243373231456e756d657261626c653a20676c6f62616c20696e646578206f60448201527f7574206f6620626f756e647300000000000000000000000000000000000000006064820152608401610a4e565b6008828154811061153e5761153e612f2b565b90600052602060002001549050919050565b611558611f9f565b600c6115648282612f8f565b5050565b6000818152600260205260408120546001600160a01b0316806108ff5760405162461bcd60e51b815260206004820152601860248201527f4552433732313a20696e76616c696420746f6b656e20494400000000000000006044820152606401610a4e565b6115d5611f9f565b6001600160a01b03821661162b5760405162461bcd60e51b815260206004820152601860248201527f43616e6e6f74204d696e7420746f2061646472657373203000000000000000006044820152606401610a4e565b600e5461058c9061164b9060ff841690600160b81b900461ffff16612e6d565b61ffff16111561168b5760405162461bcd60e51b815260206004820152600b60248201526a139bc81b5bdc994813919560aa1b6044820152606401610a4e565b60015b8160ff168160ff1611610aef57600e8054600160b81b900461ffff169060176116b683612ea2565b91906101000a81548161ffff021916908361ffff160217905550506116ef83600e60179054906101000a900461ffff1661ffff16612136565b600e54604051600160b81b90910461ffff16906001600160a01b038516907f0f6798a560793a54c3bcfe86a93cde1e73087d944c0ea20544137d412139688590600090a38061173d81612ec3565b91505061168e565b61174d611f9f565b600e805461ffff909216600160e81b027fff0000ffffffffffffffffffffffffffffffffffffffffffffffffffffffffff909216919091179055565b6002600b54036117db5760405162461bcd60e51b815260206004820152601f60248201527f5265656e7472616e637947756172643a207265656e7472616e742063616c6c006044820152606401610a4e565b6002600b55600e54600160a81b900460ff166118395760405162461bcd60e51b815260206004820152601460248201527f436c61696d206973206e6f7420616c6c6f7765640000000000000000000000006044820152606401610a4e565b60005b60ff8116821115611b375761188383838360ff1681811061185f5761185f612f2b565b905060200201356000908152600260205260409020546001600160a01b0316151590565b6118cf5760405162461bcd60e51b815260206004820152601360248201527f746f6b656e20646f65736e2774206578697374000000000000000000000000006044820152606401610a4e565b6118f383838360ff168181106118e7576118e7612f2b565b90506020020135611568565b6001600160a01b0316336001600160a01b0316146119535760405162461bcd60e51b815260206004820152601460248201527f4f6e6c79206f776e65722063616e20436c61696d0000000000000000000000006044820152606401610a4e565b600e8054600160c81b900461ffff1690601961196e83612ea2565b91906101000a81548161ffff021916908361ffff160217905550506119ad83838360ff168181106119a1576119a1612f2b565b90506020020135612150565b600f54600d546001600160a01b03918216916323b872dd911633600e54612710906119ec90600160e81b900461ffff16680d8d726b7177a80000612ee2565b6119f69190612f17565b611a0990680d8d726b7177a80000612e8a565b6040516001600160e01b031960e086901b1681526001600160a01b03938416600482015292909116602483015260448201526064016020604051808303816000875af1158015611a5d573d6000803e3d6000fd5b505050506040513d601f19601f82011682018060405250810190611a819190612db3565b611acd5760405162461bcd60e51b815260206004820152601160248201527f63616e6e6f742073656e642066756e64730000000000000000000000000000006044820152606401610a4e565b82828260ff16818110611ae257611ae2612f2b565b90506020020135611af03390565b6001600160a01b03167f47cee97cb7acd717b3c0aa1435d004cd5b3c8c57d70dbceb4e4458bbd60e39d460405160405180910390a380611b2f81612ec3565b91505061183c565b50506001600b5550565b60006001600160a01b038216611bbf5760405162461bcd60e51b815260206004820152602960248201527f4552433732313a2061646472657373207a65726f206973206e6f74206120766160448201527f6c6964206f776e657200000000000000000000000000000000000000000000006064820152608401610a4e565b506001600160a01b031660009081526003602052604090205490565b611be3611f9f565b600e805461ffff909216600160d81b027fffffff0000ffffffffffffffffffffffffffffffffffffffffffffffffffffff909216919091179055565b611c27611f9f565b611c3160006121f7565b565b611c3b611f9f565b6001600160a01b038116611c915760405162461bcd60e51b815260206004820152601460248201527f43616e6e6f7420736574206164647265737320300000000000000000000000006044820152606401610a4e565b600f80546001600160a01b0319166001600160a01b0392909216919091179055565b60606001805461091490612d60565b611564338383612249565b611cd5611f9f565b600e8054911515600160a81b027fffffffffffffffffffff00ffffffffffffffffffffffffffffffffffffffffff909216919091179055565b6060611d1982611ecd565b6000611d3060408051602081019091526000815290565b90506000815111611d505760405180602001604052806000815250611d7b565b80611d5a84611ff9565b604051602001611d6b92919061304f565b6040516020818303038152906040525b9392505050565b611d8a611f9f565b6001600160a01b038116611de05760405162461bcd60e51b815260206004820152601460248201527f43616e6e6f7420736574206164647265737320300000000000000000000000006044820152606401610a4e565b600d80546001600160a01b0319166001600160a01b0392909216919091179055565b611e0a611f9f565b6001600160a01b038116611e865760405162461bcd60e51b815260206004820152602660248201527f4f776e61626c653a206e6577206f776e657220697320746865207a65726f206160448201527f64647265737300000000000000000000000000000000000000000000000000006064820152608401610a4e565b610c9c816121f7565b60006001600160e01b031982167f780e9d630000000000000000000000000000000000000000000000000000000014806108ff57506108ff82612317565b6000818152600260205260409020546001600160a01b0316610c9c5760405162461bcd60e51b815260206004820152601860248201527f4552433732313a20696e76616c696420746f6b656e20494400000000000000006044820152606401610a4e565b600081815260046020526040902080546001600160a01b0319166001600160a01b0384169081179091558190611f6682611568565b6001600160a01b03167f8c5be1e5ebec7d5bd14f71427d1e84f3dd0314c0f7b2291e5b200ac8c7c3b92560405160405180910390a45050565b600a546001600160a01b03163314611c315760405162461bcd60e51b815260206004820181905260248201527f4f776e61626c653a2063616c6c6572206973206e6f7420746865206f776e65726044820152606401610a4e565b60608160000361203c57505060408051808201909152600181527f3000000000000000000000000000000000000000000000000000000000000000602082015290565b8160005b8115612066578061205081613075565b915061205f9050600a83612f17565b9150612040565b60008167ffffffffffffffff81111561208157612081612ae2565b6040519080825280601f01601f1916602001820160405280156120ab576020820181803683370190505b5090505b841561212e576120c060018361308e565b91506120cd600a866130a5565b6120d8906030612e8a565b60f81b8183815181106120ed576120ed612f2b565b60200101907effffffffffffffffffffffffffffffffffffffffffffffffffffffffffffff1916908160001a905350612127600a86612f17565b94506120af565b949350505050565b6115648282604051806020016040528060008152506123b2565b600061215b82611568565b90506121698160008461243b565b612174600083611f31565b6001600160a01b038116600090815260036020526040812080546001929061219d90849061308e565b909155505060008281526002602052604080822080546001600160a01b0319169055518391906001600160a01b038416907fddf252ad1be2c89b69c2b068fc378daa952ba7f163c4a11628f55a4df523b3ef908390a45050565b600a80546001600160a01b038381166001600160a01b0319831681179093556040519116919082907f8be0079c531659141344cd1fd0a4f28419497f9722a3daafe3b4186f6b6457e090600090a35050565b816001600160a01b0316836001600160a01b0316036122aa5760405162461bcd60e51b815260206004820152601960248201527f4552433732313a20617070726f766520746f2063616c6c6572000000000000006044820152606401610a4e565b6001600160a01b03838116600081815260056020908152604080832094871680845294825291829020805460ff191686151590811790915591519182527f17307eab39ab6107e8899845ad3d59bd9653f200f220920489ca2b5937696c31910160405180910390a3505050565b60006001600160e01b031982167f80ac58cd00000000000000000000000000000000000000000000000000000000148061237a57506001600160e01b031982167f5b5e139f00000000000000000000000000000000000000000000000000000000145b806108ff57507f01ffc9a7000000000000000000000000000000000000000000000000000000006001600160e01b03198316146108ff565b6123bc8383612446565b6123c96000848484612594565b610aef5760405162461bcd60e51b815260206004820152603260248201527f4552433732313a207472616e7366657220746f206e6f6e20455243373231526560448201527f63656976657220696d706c656d656e74657200000000000000000000000000006064820152608401610a4e565b610aef8383836126eb565b6001600160a01b03821661249c5760405162461bcd60e51b815260206004820181905260248201527f4552433732313a206d696e7420746f20746865207a65726f20616464726573736044820152606401610a4e565b6000818152600260205260409020546001600160a01b0316156125015760405162461bcd60e51b815260206004820152601c60248201527f4552433732313a20746f6b656e20616c7265616479206d696e746564000000006044820152606401610a4e565b61250d6000838361243b565b6001600160a01b0382166000908152600360205260408120805460019290612536908490612e8a565b909155505060008181526002602052604080822080546001600160a01b0319166001600160a01b03861690811790915590518392907fddf252ad1be2c89b69c2b068fc378daa952ba7f163c4a11628f55a4df523b3ef908290a45050565b60006001600160a01b0384163b156126e057604051630a85bd0160e11b81526001600160a01b0385169063150b7a02906125d89033908990889088906004016130b9565b6020604051808303816000875af1925050508015612613575060408051601f3d908101601f19168201909252612610918101906130f5565b60015b6126c6573d808015612641576040519150601f19603f3d011682016040523d82523d6000602084013e612646565b606091505b5080516000036126be5760405162461bcd60e51b815260206004820152603260248201527f4552433732313a207472616e7366657220746f206e6f6e20455243373231526560448201527f63656976657220696d706c656d656e74657200000000000000000000000000006064820152608401610a4e565b805181602001fd5b6001600160e01b031916630a85bd0160e11b14905061212e565b506001949350505050565b6001600160a01b0383166127465761274181600880546000838152600960205260408120829055600182018355919091527ff3f7a9fe364faab93b216da50a3214154f22a0a2b415b23a84c8169e8b636ee30155565b612769565b816001600160a01b0316836001600160a01b0316146127695761276983826127a3565b6001600160a01b03821661278057610aef81612840565b826001600160a01b0316826001600160a01b031614610aef57610aef82826128ef565b600060016127b084611b41565b6127ba919061308e565b60008381526007602052604090205490915080821461280d576001600160a01b03841660009081526006602090815260408083208584528252808320548484528184208190558352600790915290208190555b5060009182526007602090815260408084208490556001600160a01b039094168352600681528383209183525290812055565b6008546000906128529060019061308e565b6000838152600960205260408120546008805493945090928490811061287a5761287a612f2b565b90600052602060002001549050806008838154811061289b5761289b612f2b565b60009182526020808320909101929092558281526009909152604080822084905585825281205560088054806128d3576128d3613112565b6001900381819060005260206000200160009055905550505050565b60006128fa83611b41565b6001600160a01b039093166000908152600660209081526040808320868452825280832085905593825260079052919091209190915550565b6001600160e01b031981168114610c9c57600080fd5b60006020828403121561295b57600080fd5b8135611d7b81612933565b60005b83811015612981578181015183820152602001612969565b83811115612990576000848401525b50505050565b600081518084526129ae816020860160208601612966565b601f01601f19169290920160200192915050565b602081526000611d7b6020830184612996565b6000602082840312156129e757600080fd5b5035919050565b80356001600160a01b0381168114612a0557600080fd5b919050565b60008060408385031215612a1d57600080fd5b612a26836129ee565b946020939093013593505050565b803560ff81168114612a0557600080fd5b600060208284031215612a5757600080fd5b611d7b82612a34565b600060208284031215612a7257600080fd5b611d7b826129ee565b600080600060608486031215612a9057600080fd5b612a99846129ee565b9250612aa7602085016129ee565b9150604084013590509250925092565b8015158114610c9c57600080fd5b600060208284031215612ad757600080fd5b8135611d7b81612ab7565b634e487b7160e01b600052604160045260246000fd5b600067ffffffffffffffff80841115612b1357612b13612ae2565b604051601f8501601f19908116603f01168101908282118183101715612b3b57612b3b612ae2565b81604052809350858152868686011115612b5457600080fd5b858560208301376000602087830101525050509392505050565b600060208284031215612b8057600080fd5b813567ffffffffffffffff811115612b9757600080fd5b8201601f81018413612ba857600080fd5b61212e84823560208401612af8565b60008060408385031215612bca57600080fd5b612bd3836129ee565b9150612be160208401612a34565b90509250929050565b600060208284031215612bfc57600080fd5b813561ffff81168114611d7b57600080fd5b60008060208385031215612c2157600080fd5b823567ffffffffffffffff80821115612c3957600080fd5b818501915085601f830112612c4d57600080fd5b813581811115612c5c57600080fd5b8660208260051b8501011115612c7157600080fd5b60209290920196919550909350505050565b60008060408385031215612c9657600080fd5b612c9f836129ee565b91506020830135612caf81612ab7565b809150509250929050565b60008060008060808587031215612cd057600080fd5b612cd9856129ee565b9350612ce7602086016129ee565b925060408501359150606085013567ffffffffffffffff811115612d0a57600080fd5b8501601f81018713612d1b57600080fd5b612d2a87823560208401612af8565b91505092959194509250565b60008060408385031215612d4957600080fd5b612d52836129ee565b9150612be1602084016129ee565b600181811c90821680612d7457607f821691505b602082108103612d9457634e487b7160e01b600052602260045260246000fd5b50919050565b600060208284031215612dac57600080fd5b5051919050565b600060208284031215612dc557600080fd5b8151611d7b81612ab7565b6000808454612dde81612d60565b60018281168015612df65760018114612e0b57612e3a565b60ff1984168752821515830287019450612e3a565b8860005260208060002060005b85811015612e315781548a820152908401908201612e18565b50505082870194505b505050508351612e4e818360208801612966565b01949350505050565b634e487b7160e01b600052601160045260246000fd5b600061ffff808316818516808303821115612e4e57612e4e612e57565b60008219821115612e9d57612e9d612e57565b500190565b600061ffff808316818103612eb957612eb9612e57565b6001019392505050565b600060ff821660ff8103612ed957612ed9612e57565b60010192915050565b6000816000190483118215151615612efc57612efc612e57565b500290565b634e487b7160e01b600052601260045260246000fd5b600082612f2657612f26612f01565b500490565b634e487b7160e01b600052603260045260246000fd5b601f821115610aef57600081815260208120601f850160051c81016020861015612f685750805b601f850160051c820191505b81811015612f8757828155600101612f74565b505050505050565b815167ffffffffffffffff811115612fa957612fa9612ae2565b612fbd81612fb78454612d60565b84612f41565b602080601f831160018114612ff25760008415612fda5750858301515b600019600386901b1c1916600185901b178555612f87565b600085815260208120601f198616915b8281101561302157888601518255948401946001909101908401613002565b508582101561303f5787850151600019600388901b60f8161c191681555b5050505050600190811b01905550565b60008351613061818460208801612966565b835190830190612e4e818360208801612966565b60006001820161308757613087612e57565b5060010190565b6000828210156130a0576130a0612e57565b500390565b6000826130b4576130b4612f01565b500690565b60006001600160a01b038087168352808616602084015250836040830152608060608301526130eb6080830184612996565b9695505050505050565b60006020828403121561310757600080fd5b8151611d7b81612933565b634e487b7160e01b600052603160045260246000fdfea2646970667358221220669423a65bc6533b8dff79a1ce13015dbde24ac10080c6d55bc574f6e97407ad64736f6c634300080f0033",
  "linkReferences": {},
  "deployedLinkReferences": {}
}